:020000040800F2
:1000000058480220850200088BF7000879E40008B0
:1000100089F70008A19A0008850401080000000083
:10002000000000000000000000000000C501000802
:10003000219C0008000000002102000879FC000853
:100040009F0200089F0200089F0200089F0200080C
:100050009F0200089F020008259C00089F020008DC
:100060009F0200089F0200089F0200089F020008EC
:100070009F0200089F0200089F0200089F020008DC
:100080009F0200089F0200089F0200089F020008CC
:100090009F0200089F0200089F0200089F020008BC
:1000A0009F0200089F0200089F0200089F020008AC
:1000B0009F0200089F0200089F0200089F0200089C
:1000C0009F0200089F0200089F0200089F0200088C
:1000D0009F0200089F0200089F0200089F0200087C
:1000E0009F0200089F0200089F0200089F0200086C
:1000F0009F0200089F0200089F0200089F0200085C
:100100009F0200089F0200089F0200089F0200084B
:100110009F0200089F0200089DFD00089F02000842
:100120009F0200089F0200089F0200089F0200082B
:100130009F0200089F0200089F0200089F0200081B
:100140009F0200089F0200089F0200089F0200080B
:100150009F0200089F0200089F0200089F020008FB
:100160009F0200089F0200089F0200089F020008EB
:100170009F0200089F0200089F0200080000000084
:100180009F0200089F0200089F0200089F020008CB
:100190009F0200089F0200089F0200089F020008BB
:1001A0001DF000089F020008659B0008DFF810D0D2
:1001B00000F0FCF900480047230E0108AFF300806F
:1001C000584802202C4B19680868B0E8F04F80F3BB
:1001D0000988BFF36F8F4FF0000080F311887047DC
:1001E0000000000008480068006880F308884FF0AD
:1001F000000080F3148862B661B6BFF34F8FBFF37F
:100200006F8F00DF00BF00BF08ED00E0DFF80C00DB
:10021000016841F470010160704700BF88ED00E0A3
:10022000EFF30980BFF36F8F134B1A681EF0100FA6
:1002300008BF20ED108A20E9F04F106009B44FF09C
:10024000500080F31188BFF34F8FBFF36F8F11F011
:1002500011FD4FF0000080F3118809BC196808688F
:10026000B0E8F04F1EF0100F08BFB0EC108A80F31A
:100270000988BFF36F8F7047AC000020EFF3058053
:10028000704700000648804706480047FEE7FEE743
:10029000FEE7FEE7FEE7FEE7FEE7FEE7FEE7FEE736
:1002A00049FD0008AD0100082DE9F05F054600207A
:1002B00092469B4688460646814640241BE02846D7
:1002C00041464746224600F004F953465A46C01AB2
:1002D000914110D311461846224600F0EBF82D1A32
:1002E00067EB01084F4622460120002100F0E2F8AA
:1002F00017EB00094E41201EA4F10104DFDC484643
:1003000031462A464346BDE8F09F10B5441A0346DD
:10031000944209D28418114403E011F8013D04F815
:10032000013D521EF9D210BD40EA0104A40703D0DA
:1003300009E010C9121F10C3042AFAD203E011F811
:10034000014B03F8014B521EF9D210BDD2B201E0AD
:1003500000F8012B491EFBD270470022F6E710B5CA
:1003600013460A4604461946FFF7F0FF204610BD23
:100370002DE9FE4F81EA030404F0004421F000411E
:1003800000944FF0000B23F0004350EA01045ED0CC
:1003900052EA03045BD0C3F30A54C1F30A552C4458
:1003A000A4F2F3340194A0FB0254C1F3130141F40D
:1003B0008011C3F3130343F4801301FB024400FBD9
:1003C000034E840A970A44EA815447EA8357A4FB00
:1003D000076802958D0A05FB07854FEA932C04FBFD
:1003E0000C542705029D4FEA065847EA1637B5EB2D
:1003F00008056EEB070C870E920E47EA811742EA5A
:100400008312A7FB0201B6EB0B0164EB00042B0D7A
:1004100043EA0C335E1844EB1C50DA465146E7FBC6
:100420000201C5F313044FEA0B3343EA14534FEAB6
:100430000432019C43EA0603A4F10C040294009CDC
:10044000CDE900B400F064F803B0BDE8F08F0020FF
:100450000146F9E70EB5C10F80EAE0700844CA070B
:10046000002140F233438DE80E000A460B4600F0AF
:100470004FF803B000BD70B5C1F30A5201F000455A
:100480000024C1F3130140F2FF3341F480119A427A
:1004900001DA002070BD40F233439A42A2F23342A7
:1004A00003DC524200F015F800E090402C43F1D0FC
:1004B000404270BD202A04DB203A00FA02F10020FD
:1004C00070479140C2F1200320FA03F31943904092
:1004D0007047202A04DB203A21FA02F000217047FD
:1004E00021FA02F3D040C2F120029140084319469C
:1004F000704710B5141E73F1000408DA401C41F176
:10050000000192185B411A4301D120F0010010BD97
:100510002DE9F04D92469B4611B1B1FA81F202E00D
:10052000B0FA80F220329046FFF7C4FF04460F462F
:1005300040EA0A0041EA0B0153465A46084313D0E9
:10054000114653EA010019D0C8F140025046FFF7A6
:10055000C0FF05460E46504659464246FFF7AAFFE1
:10056000084305D0012004E020463946BDE8F08D5F
:100570000020054346EAE0762C4337430A9863059A
:10058000E40AA0EB08000022FD0A44EA47540A30BE
:1005900002D500200146E9E7010510196941DDE9AE
:1005A000084500196941BDE8F04DA2E7064C074D2A
:1005B00006E0E06840F0010394E807009847103433
:1005C000AC42F6D3FFF7F6FD549D0108749D010877
:1005D00070B58C1810F8015B15F0070301D110F805
:1005E000013B2A1106D110F8012B03E010F8016B32
:1005F00001F8016B5B1EF9D12B0705D40023521EB5
:100600000DD401F8013BFAE710F8013BCB1A921C1C
:1006100003E013F8015B01F8015B521EF9D5A1421A
:10062000D8D3002070BD00002DE9F04F161A85B018
:100630005D1A9E4656EA0503DDF838B078D086EAA2
:10064000E67385EAE574A3EBE673A4EBE5749C42DC
:100650000746894632DC1C46A6424FF00003019350
:100660003AD06D4239464FF0FF33002D1746C6F1A0
:1006700000040A46F1460393DBF8001032D1DFF89C
:100680000883019BD8F800E00846002B00F0CF80DB
:100690009EF81A30002B00F0C181002CC0F2C581F9
:1006A000B54EAA467246013B451C032B00F232812F
:1006B000DFE813F04A013F0156011F013B46304677
:1006C0002E4611464F46A64299464FF00103724608
:1006D00005468E460193C4D10123002D0393DBF818
:1006E0000010CCD0DFF8A082D8F8000004EBD4765C
:1006F000827E4FEA6606B8BF7642F2B9002C14DB60
:10070000019B002B00F05181924601E0D8F80000D7
:10071000436E96FBF4F00AEB07015B6848440AF16C
:10072000010A984754452E44F0DA05B0BDE8F08F31
:1007300005B0BDE8F04F00F07BB95A1C00F02D81E8
:10074000002C53DBCDF808904FF0000AC1469846C4
:100750004144CBF80010827E013A032A15D8DFE825
:1007600002F0574B2C02854B4FEAE17E83FB0132AE
:10077000CEEBA20202EB4202A1EBC2020B2A12DD77
:1007800022F00402103A012A0DD996FBF4F1029BE3
:10079000426E1944019B002B40F0F88052683846A5
:1007A0009047DBF800100AF1010A544507F10107F0
:1007B0002E4416DBD9F80000CAE76F4B4FEAE17E02
:1007C00083FB0132CEEBE20202EB8202A1EB82025A
:1007D0000B2AD7DC0AF1010A544507F101072E4420
:1007E000E8DA039A0132434600F0DD80CB1ACBF8F9
:1007F000003005B0BDE8F08F614A0A40002AC0F21F
:10080000E680012ACCBF00220122002ACBD1BCE71E
:100810005C4A01F1060E0EEA0202002AC0F2DC80F8
:100820000B2ACCBF00220122002ABCD1ADE79EF8E2
:100830001A30002B00F0E980002CC0F2F680DDF8C1
:1008400004A04E4E7246013B451C032B13D8DFE833
:1008500003F04337210286FB0031C317C3EBA1032A
:1008600003EB4303A0EBC3030B2B0ADD23F00403CC
:10087000103B012B05D9536E49465B6807EB0A0014
:1008800098470AF1010A544514DBD8F8002028469D
:10089000937ED8E7384B83FB0031C317C3EBE103EA
:1008A00003EB8303A0EB83030B2BE1DC0AF1010ACA
:1008B0005445EADA691ECBF8001005B0BDE8F08FA8
:1008C0002F4B0340002BC0F29680012BCCBF00239E
:1008D0000123002BD5D1CEE72A4B691D0B40002BFD
:1008E000C0F28E800B2BCCBF00230123002BC8D17C
:1008F000C1E7224B83FB0031C317C3EBA10303EB1A
:100900004303A0EBC3030B2B0ADD23F00403103BCE
:10091000012B05D9536E0AEB07015B6848469847DF
:100920000AF1010A5445C5DBD8F800202846937E19
:10093000B9E6134B0340002B53DB012BCCBF002344
:100940000123002BECD1E5E70E4B691D0B40002B7A
:100950004CDB0B2BCCBF00230123002BE0D1D9E7CC
:1009600086FB0031C317C3EBE10303EB8303A0EB6A
:1009700083030B2BCBDCD3E767666666ABAAAA2A98
:10098000030000800F0000802C0100200846526800
:1009900039469047DBF8001005E72144002CCBF8DE
:1009A0000010BFF6CFAE214420E79A4601E0D8F808
:1009B0000000436E96FBF4F10AEB07005B684944C4
:1009C0000AF1010A984754452E44F0DAADE6013A9F
:1009D00062F00302013214E7013A62F00F020132C1
:1009E0001EE7013B63F003030133A6E7013B63F01D
:1009F0000F030133ADE7013B63F00303013364E709
:100A0000013B63F00F0301336CE7DEF864301B68D1
:100A10004946384605B0BDE8F04F184739464846C4
:100A200005B0BDE8F04F03F009B90D4642E700BF3D
:100A3000064B1B681A7E012A05D0013A02EBD272DE
:100A4000521000F005B85B6E5B6818472C0100205F
:100A50002DE9F04FDFF8DCB0354EDBF800401546ED
:100A600040F2C32202FB05F2034685B086FB020971
:100A7000606E0293D217C2EBA919EF18C5EB0308F9
:100A800005EBD57E05FB05F6046806EB6E0309F160
:100A900001093A46404601938A46A047B9F1000F42
:100AA00042DD029A012413190293531E0393334625
:100AB00016461AE0013DAF19C5EB0608DBF8003019
:100AC0005B6E0AEB04013A461B6840469847DBF828
:100AD00000305B6EC4EB0A013A461B6840460134A5
:100AE0009847A14520DB05FB05F3019A04FB04337D
:100AF0009A42E3DAA945DDDA029ADBF80030171BE7
:100B0000039A5B6E02EB0408384642460AEB050185
:100B10001B689847DBF800305B6E424638461B681E
:100B2000C5EB0A019847C5E705B0BDE8F08F00BFE7
:100B3000D34D62102C0100202DE9F04F002987B021
:100B40001F4C40F3D5822746054600EB810E43F645
:100B5000FF74B5F90260B44205F10405A8BF34463C
:100B6000B742B8BF3746AE45F3D10497154D2D684F
:100B70006D696DB1B5F90660049FB5F90250F61ABA
:100B8000ED1AB742A8BF3746AC420497B8BF2C460F
:100B9000049DAC4200F38E81DFF82C8005939346D0
:100BA00006464D1E8A460020074B8245186040F3DA
:100BB0007C81059BCDF80CB02344029319E000BF63
:100BC00001C0FFFF2C010020A0420220A6450CD04E
:100BD000C0F27381A44500F38581F44540F3788128
:100BE000A64502DCA44580F28281BA45384640F32E
:100BF000EC8006EB8001A84200F10107ACBF0023A6
:100C0000BB00B1F902C03344A4450246B3F902E087
:100C1000DCD1A64500F03E82002DC8BF0021E4DDF6
:100C20005AB1013A06EB82030131B3F90230A34213
:100C30000BD1A942D9D0002AF3D12A4606EB820370
:100C40000131B3F90230A342F3D01B1BC4EB0E0EEB
:100C500093EA0E0F36F9202040F112829F4B1B6859
:100C60000B2BC2DC002B40F32B82581E410008EBFB
:100C7000010CBCF904E0724500F3318208EB430932
:100C8000A9F804E0002800F01B82981E4FEA4009F2
:100C900008EB090EBEF904B05A4500F38D80ACF89C
:100CA00004B0002800F00C82D81E410008EB010CB3
:100CB000BCF904C0624500F31482AEF804C00028F9
:100CC00000F0FE81A3F1040984484FEA490B00EBD0
:100CD0000B0EBEF904C062456EDC4144A1F804C0AD
:100CE000B9F1000F00F0EC81581F410008EB010C36
:100CF000BCF904904A4500F3E781AEF8049000285F
:100D000000F0DE81981F4FEA400B08EB0B0EBEF996
:100D100004904A4550DCACF80490002800F0D081E3
:100D2000D81F410008EB0109B9F904C0624500F37E
:100D3000CB81AEF804C0002800F0C281A3F1080CFA
:100D40004FEA4C0E08EB0E00B0F90400824233DC8F
:100D5000A9F80400BCF1000F00F0B281A3F1090072
:100D6000410001905D4800EB0109B9F904B05A4512
:100D700000F3BB81C6440198AEF804B0002800F02F
:100D80009F81A3F10A004FEA400C08EB0C0EBEF95C
:100D900004B05A4510DCA9F804B0002800F0908196
:100DA000A3F10B01490008EB0100B0F904008242F5
:100DB00000F39981AEF80400484801440133BA4574
:100DC00003608A8038463FF714AF444BDDF80CB01F
:100DD0001B68002B69DD012BB8F9040065D0404B7E
:100DE000B8F906201B68029F5B6E58441B685A4482
:100DF00039469847D8F80030022B56DD032BB8F956
:100E0000080052D0364BB8F90A201B685B6E584474
:100E10001B685A4439469847D8F80030042B44DD03
:100E2000052BB8F90C0040D02D4BB8F90E201B68EB
:100E30005B6E58441B685A4439469847D8F80030CE
:100E4000062B32DD072BB8F910002ED0244BB8F951
:100E500012201B685B6E58441B685A4439469847F9
:100E6000D8F80030082B20DD1C4A092BB2F91400F9
:100E70001BD01B4BB8F916201B685B6E58441B68CF
:100E80005A4439469847D8F800300A2B0DDD0B2B11
:100E9000B8F9180009D0124BB8F91A201B685B6E1C
:100EA000394658441B685A449847049B0134A3426E
:100EB000BFF679AE07B0BDE8F08FA445FFF695AE5A
:100EC000F44514DCA4453FF790AEA645FFF68DAE81
:100ED00036F92020B3F9003010E000BFA042022014
:100EE0002C010020A6453FF780AEF445EADD6146BF
:100EF000B3F9002036F92030F4468E46991ACCEB2F
:100F0000040303FB01F3002BCCEB0E0EDBBF4FEA17
:100F10006E0101F1FF3103EB6E01591A764B1B682C
:100F20000B2B3FF762AE91FBFEF1002B0A440192BE
:100F300040F3C480581E1146420008EB020EBEF971
:100F400004C0614500F3C28008EB4309A9F804C05E
:100F5000002800F0B380981E4FEA400B08EB0B0C02
:100F6000BCF90490494500F38380AEF80490002852
:100F700000F0A480D81E420008EB0209B9F904E091
:100F8000714500F39F80ACF804E0002800F09680E3
:100F9000A3F1040C4FEA4C0E08EB0E00B0F904006C
:100FA000814265DCA9F80400BCF1000F00F08680E6
:100FB0005149581F420001EB02090199B9F904B0E7
:100FC000594500F38780C644AEF804B0002875D0B8
:100FD000981F4FEA400B08EB0B0EBEF904C06145A9
:100FE00046DCA9F804C0002868D0D81F420008EBEE
:100FF000020CBCF90490494564DCAEF8049000286A
:101000005CD0A3F108004FEA400908EB090EBEF9D5
:1010100004B059452CDCACF804B000284ED0A3F144
:101020000900420008EB020CBCF904C0614554DC25
:10103000AEF804C0002841D02F49A3F10A004FEABE
:10104000400C01EB0C0E0199BEF9049049450FDCF0
:101050004244A2F80490002830D0A3F10B004200D3
:1010600008EB0200B0F90400814231DCAEF8040064
:101070002148BDF804100244013391800360B4E5B7
:101080001E4B03991B685B6E0A441B68029910464D
:101090009847AAE536F92010B3F9003003980144C7
:1010A00002461818154B1B685B6E8142B6BF02469C
:1010B0000A4608461B680299984796E50022D7E73A
:1010C000002179E65A46D3E7594675E65A00CFE73C
:1010D0006246CDE74FEA4C02CAE74A46C8E75900E4
:1010E0006AE6494668E6614666E64FEA4C0163E611
:1010F000049443F6FF7439E5A04202202C0100203D
:10110000014B83E80300704774410220014B83E8E0
:10111000030070477C410220014B83E803007047C5
:1011200084410220704700BF704700BF2DE9F04F97
:101130004F4E3368DA69B3F92250D469B4F80CB071
:1011400083458BB07DD8E18981427AD321680891AB
:101150004FF0FF31CBEB000B0791BBF1FF3F6AD0A3
:10116000177EB3F92A80A27CB3F9249094F810A0DA
:1011700017FB02F34046069303F074F83368069AAF
:101180000899099002FB0B109A6BDB690490059299
:10119000A27C03924FF0010BCDF808B0DA7E0192E9
:1011A0009B7E009328463B465246494602F060FB30
:1011B000079801301CD048F0020003F053F82C4A85
:1011C000079812680899069B03FB0013916BD2697C
:1011D00005910493A37C0393CDF808B0D37E0193CB
:1011E000937E009352463B464946284602F040FB18
:1011F00033681F4FDB695A7E1B7E9A4214D9B8F1BF
:10120000020F11D088F0040003F02CF83B68DB6972
:10121000187ED97E9A7E5B7E00FB01910AFB02520A
:101220004B44284602F034FD9DF8240003F01AF8E0
:101230003368B3F92250627C15445D840BB0BDE87D
:10124000F08FA1680029F6D00F88B842F3D3B1F827
:1012500002E08645EFD34968C01B80B267680897F3
:1012600001EB800731F920B0B7F90210079174E75C
:101270002C010020044B1B68DB69DB6909B11A7C77
:101280000A60587C704700BF2C01002002230B80AD
:10129000704700BFC3699A898A4202D8DA898A42B4
:1012A00011D2986818B10388994201D20020704782
:1012B00042888A42FAD3C91A436833F82100C043EE
:1012C000C0F3C03070470120704700BF2DE9F04FD8
:1012D0003E4D2B68DA69B3F92A60D36989B043B10E
:1012E0001A88904202D35988814205D29B68002B0C
:1012F000F6D109B0BDE8F08FD3F80480DFF8CC90C8
:10130000841A08EBC407304697F802B002F0AAFF2F
:101310008246286818F83420D0F81CE0D0F838C08D
:101320009EF81830B0F92410B0F92200CDF814C09E
:1013300006934FF0010C7B680493CDF80CB0CDF808
:1013400008C09EF81BC0CDF804C09EF81AE0069BAA
:10135000CDF800E002F08CFA2B68DA69537E92F83F
:1013600018B05B4523D9022E069320D0D17E079179
:1013700000F0FCFE064600F0C7FE01F05BFED9F867
:10138000002018F834C0D469B2F9220094F81BE0A8
:101390000799B2F92440069B0CFB0E0201FB0343A4
:1013A00001FB0B4102F074FC304601F043FE504655
:1013B00002F058FF2B687978D8695A8C807E00FB40
:1013C00001225A8409B0BDE8F08F00BF2C01002033
:1013D000114B70B41B68DD69EB6943B11A88904208
:1013E00002D35C88844205D29B68002BF6D1184654
:1013F00070BC70475E68AC7E821A06EBC2035B78F5
:1014000013FB04F00029F3D016F8323014FB03F379
:101410000B6070BC704700BF2C01002001230B80C3
:10142000704700BFC06950B103888B4202D843881F
:101430008B4203D280680028F6D1704701207047A4
:101440002DE9F047234E3368002B3FDD224D234F1B
:101450002C68D7F80090C3EB431804EB880808F118
:101460000C080C344FF0000AA4F10803742218464B
:101470004946FEF74AFF221F2063A06344F80CACE4
:101480006263E4607C34A045EED10024A04603E012
:1014900092B13268904514DA08F0DAFD2B681A59D7
:1014A000904203EB040108F1010804F17C04EFD140
:1014B00004313960BDE8F087086004313960BDE867
:1014C000F087194604313960BDE8F087024B034FBD
:1014D0001968EDE7380100201C4302202C01002090
:1014E000F8B5194F194B1A4E384640F80C3F02F028
:1014F000F1F83468C4EB4414A400204600F0AEF8C0
:10150000144B386022461B68002198474FF0FF3388
:10151000736008F0A1FD3368002B11DD002425461F
:1015200003E072B133689D420ADA08F091FD3B682E
:101530001A599042234405F1010504F17C04F0D1CD
:10154000F8BD1860F8BD00BF1C430220858C000860
:10155000380100204401002000B9704710B504464E
:1015600000F04EFF204604F0F1FB044601F016FEA9
:10157000204610BD70B5054600F042FF25B9002495
:1015800001F00CFE204670BD00F03AFF284604F042
:10159000DDFB044601F002FE002CF0D0144E15498C
:1015A000F269736B0132F26113F83420013203F8EF
:1015B000342003EBC4032A465D680B6805F108007C
:1015C000002198472968726B12F83130012B01D93C
:1015D000F06930B9013B02F8313001F0DFFD2046FF
:1015E00070BD0138013BF06102F83130F5E700BF12
:1015F0006443022044010020024B21F0030183E8F0
:10160000030070478C41022000B9704770B50D4C43
:10161000054600F0F5FE636BEE00334459684868F8
:1016200004F0E6F9626B6368616A164401330020D6
:101630006360716002F835006562BDE8704001F0DA
:10164000ADBD00BF6443022028B1034AD36B0360E1
:1016500003B15860D063704764430220F8B5894EE7
:1016600096F828300446002B2FD00334356CF26BEB
:1016700024F003040434A54238BF254662B152F871
:10168000043C9D42144604D114E054F8043C9D42AD
:1016900010D02468002CF8D1F368B46B1C4454F8C3
:1016A000041C611A0B68002B65D14B689D426CDDF0
:1016B000002408E023680BB161685960616801B1DA
:1016C0000B60A24253D02046F8BD6F4B9A68586811
:1016D000012186F828100AB982089A605A253562D5
:1016E00010272022402519683764B26435658027A9
:1016F0004FF480724FF40075B7653266B5664FF4EB
:1017000080674FF400624FF48055A1F114033767EE
:10171000B267C6F880504FF400574FF480424FF440
:1017200000450344C6F88870C6F89020C6F8985063
:101730004FF480374FF400324FF48025C6F8A07084
:10174000C6F8A820C6F8B050022201254FF40027A1
:10175000B16373633261F060C6F8B8705D60756242
:10176000756004F045F906F037F935637DE72368C5
:10177000F3632046F8BD002007F000FB54F8041C7A
:10178000611A0B68002B93D18FE7D6F8B8703D4AE9
:10179000581B041DBB420C4472D2D2F8B070BB423D
:1017A0006CD2D2F8A870BB4266D2D2F8A070BB420D
:1017B00060D2D2F898709F425AD9D2F89070BB424A
:1017C00054D2D2F88870BB424ED2D2F88070BB425D
:1017D00048D2926F934243D2376F2A4ABB423DD2DE
:1017E000976EBB4238D2176EBB4233D2976DBB4265
:1017F0002ED2176DBB4229D2976CBB4224D2126CF9
:1018000093420CD2F2687369521B2B44F2607361ED
:1018100010B944F8045C56E704F0EAF8F9E700224E
:101820003768D1F808E0FB1A3360CB68BEF1000FCF
:1018300001D0CEF8043013B1C3F800E0E2E706EBC4
:10184000C202C2F844E0DDE70122E9E70222E7E74D
:101850000322E5E70422E3E70522E1E70622DFE7CA
:101860000722DDE70822DBE70922D9E70A22D7E7CA
:101870000B22D5E70C22D3E70D22D1E70E22CFE7CA
:101880000F22CDE7644302208C410220074AD16930
:10189000536B0131D16113F83020013203F830204D
:1018A00003EBC00358680830704700BF6443022050
:1018B00030B403680A4A53F8085C0446506B10F8C9
:1018C0003530012B03D9D16909B10139D161013B0F
:1018D00000F8353000221046226030BC704700BF4F
:1018E00064430220034B5B6B03EBC000406808308D
:1018F000704700BF64430220C3B2CAB29A1A92B2C0
:1019000030B415B2002DBCBF524215B2C0F307234C
:10191000C1F307229B1A9BB2090C1AB2C1EB10410A
:10192000002A89B20CB2BCBF5B421AB2002CBCBF09
:1019300049420CB202FB02F205FB0520A1B201FBF9
:10194000010030BC704700BF2DE9F041002182B09A
:10195000084600F0BBFC00F053FD042002F082FCBE
:10196000174B1B69DD6C1C6DA5F57F57A4F57F56E1
:1019700005F57F5504F57F5480463F3F3F353F3E98
:101980003F346846ADF80070ADF80450ADF8026021
:10199000ADF8064003F0B4FC48B123462A46314670
:1019A000384602F075F903F069FB0028F5D140468E
:1019B00002F058FC01F0F2FB02B0BDE8F08100BF7C
:1019C0001C010020012B3BDC2DE9F84381461C2043
:1019D00090460F461E46FFF741FE054600287FD081
:1019E000414A002F31D00023DFF804E152F82640AD
:1019F00003609EF8001007618E428661A0F8148093
:101A0000C0F80C904360836002DB731C8EF80030DA
:101A1000002C5DD021464C68002CFBD1D9F8000089
:101A2000CB681B6883422CDD09680029F8D148B9CE
:101A30002E4B16361A68284642F82650BDE8F88321
:101A4000002070472846BDE8F88352F82610002988
:101A500030D0084600E018460368002BFBD1DFF8C1
:101A600090E000692B6028619EF80000AE6186421C
:101A7000A5F81480C5F80C906B60AB60CBDB0C460E
:101A8000C3E70AD04B6843B31D606B608D4214BF3F
:101A90000B4600234D602B60C9E7B8F1010FF1D16F
:101AA00004E0D9680C6884421946EBDB0B68002B14
:101AB000F7D1E7E7DFF838E001609EF80030866193
:101AC0009E42A0F81480C0F80C9041608160D6DA84
:101AD00042F82650D9F80000A9E742F82650D5E789
:101AE0000020BDE8F88300BF344402202C01002010
:101AF0002F440220FFF7A8BD00284DD02DE9F0416A
:101B0000DFF89CE0254F9EF80060BC4602E02846C6
:101B1000002D27D084690568012CF8DCB44257F801
:101B20002430A4BF661CF6B20BB932E013465A68E3
:101B3000002AFBD1C268116802E01B68002BE6D0C6
:101B4000DA6812688A42F8DC10D05A68A2B11060D4
:101B50004260984214BF1A4600225860026028462C
:101B6000002DD7D18EF80060BDE8F081828A012A6D
:101B70000BD05A68002AEAD147F82400E9E7D36875
:101B8000D3F8008088451346DFDB1A68002AF6D1B7
:101B9000DBE74CF82400BAE7704700BF344402206A
:101BA0002F4402200F4A816952F8213098420AD00E
:101BB00042680AB103681360036803B15A600023E6
:101BC000036043607047036842F821302BB1002264
:101BD0005A604268002AEED1F0E74268002AEAD152
:101BE000EDE700BF344402200020704701280EDCDE
:101BF000084B53F8200058B1C3681B681BB908E0B4
:101C0000C3681B6823B100680028F9D17047002021
:101C100070477047344402202DE9F04F474E83B09F
:101C2000044600F0EDFB00F0B9FA33680746B3F95B
:101C3000229000F017FB3268938C1FFA80FACAEBEF
:101C400003031BB29384217800294DD0BFB2B04664
:101C500047F6FF71204601F04FFC014683462046BF
:101C600001F008FC31688B8D03F00303012B5AD07F
:101C7000022B5CD085B24FF0000E4A8CB1F92430B3
:101C8000ADF80230CEEB020292B210B2013B05F188
:101C9000FF3E964448843B446A465946ADF80000EE
:101CA0002046ADF80630ADF804E001F089FB33685A
:101CB000BDF802209A845946204601F02FFA225C92
:101CC0000A2A04EB00031BD00D2A19D0BDF800002E
:101CD000D8F8002005445584197819B159785C1C4E
:101CE0000029B5D1B2F92430918D9A4421F0030333
:101CF000A2F824A0938501F051FA03B0BDE8F08F5B
:101D00003268918D01F00301013901298ABF118CDC
:101D1000A2F82290518419780A29DED1918C394495
:101D200091841978D9E71FFA80FE7546A5E700EB84
:101D3000D072C2F34F0E85B29FE700BF2C01002086
:101D400070B50E461546044600F05AFB054B1B685D
:101D50005E849D8414B12046FFF75EFFBDE87040AD
:101D600001F01CBA2C0100202DE9F04FB84D8DB0C8
:101D70008046894617469A4600F042FB2C680020B0
:101D8000E66C246D03F0BCFA002800F0268104EB19
:101D90000A03A144C3EB090B06EB0802F119CBF1CE
:101DA0000008C1EB020A18EA2B0838BFD8464AEAF5
:101DB0000B07CDF814B004930391A64E934604E0AC
:101DC00003F05CF9002800F008812B681C7E0023DA
:101DD000012C079300F03281002FF1D0BAF1000FEF
:101DE00004F1FF34C0F2258150460222059933EAFE
:101DF000210328BF1346404580F2F48043F00403DA
:101E00000246DBB24046411001EB822292FBF0F227
:101E1000911106EB4100C2F3830CCCF1100EB0F926
:101E20002400BEF1100F0EFB00F006D0894A02EB31
:101E30004101B1F926100CFB010010F1080148BF67
:101E400000F117010911580748BFC1F58061DA0791
:101E500048BFC1F500619B0748BFC1F5805101F53E
:101E60000062C2F30B02B2F5006FC6BFA2F50062BA
:101E700001200020B2F5806FC8BFC2F5006201F5F5
:101E80008063911102F03F02C2F1400292B236F833
:101E900011E0402A02FB0EFE08D0102906D00131C5
:101EA000C2F1400236F8111002FB01EE0EF1200ED5
:101EB0004FEA9E1E002840F097807046C3F30B0344
:101EC000B3F5006FC6BFA3F5006301220022B3F58E
:101ED000806FC8BFC3F5006303F03F0E9911CEF1C8
:101EE000400E1FFA8EFE36F81130BEF1400F00FB97
:101EF00004F00EFB03F308D0102906D00131CEF117
:101F0000400E36F811100EFB013320339B0902B14D
:101F10005B42002803FB04F469DB00F50070002C31
:101F20004FEAA0206ADB04F5007400284FEAA424DD
:101F30006BDD00F1010C002C4FEA6C0C4FEA6000E5
:101F40006EDD04F1010E4FEA6E0E64101FFA8CFC78
:101F50001FFA8BF21FFA8EF302EB0C0EADF820E0A5
:101F6000BDF80CE080B2121AF444C0EB0E00BDF8CC
:101F700010E0ADF82420A4B21FFA89F1CA18091B99
:101F8000C4EB0E049E440023ADF82220ADF82610C9
:101F90001A46ADF82800042108A8ADF82CC0ADF809
:101FA0002A40ADF82EE0FEF7C7FD2B685B7E002BC4
:101FB0007FF406AF49465846FEF73AFD244B1B68AE
:101FC0005B7E002B7FF4FCAE04990398FEF730FD96
:101FD00003F054F800287FF4F8AE01F0DFF80DB0FC
:101FE000BDE8F08F42460EE7CEF1000066E7C0F58F
:101FF00000708012002CC0F1000094DAC4F5007467
:10200000A4120028C4F1000493DC431E00EBD07C32
:1020100003EBD373002C4FEA63004FEA6C0C90DCA7
:10202000631E04EBD47E03EBD3735C104FEA6E0E99
:102030008CE7CAF1000003220123D7E607AB009327
:10204000039A049B49465846FEF7EEFAB8E600BFED
:102050002C010020403101082DE9F04104460D46D5
:10206000164600F0CDF90C4B1B680020DF6CD3F84E
:10207000508003F045F950B145443C44324629466E
:102080002046FEF7E5FC02F0F9FF0028F6D1BDE896
:10209000F04101F083B800BF2C010020F0B583B0FF
:1020A000074616461C460D4600F0AAF9104B1B6861
:1020B000DA6C1B6D174416441D441C446846ADF889
:1020C0000070ADF80460ADF80250ADF8064003F0C2
:1020D00017F948B1234632462946384601F0D8FD63
:1020E00002F0CCFF0028F5D101F058F803B0F0BDA4
:1020F0002C010020034B53F82000C36808219B6A81
:10210000184700BF3444022010B500F079F901F0FF
:10211000FFFD01F017FF044601F040F8204610BD16
:1021200010B5044600F06CF9054B1B68DB69002113
:102130005B6820469847044601F030F8204610BD01
:102140002C01002038B504460D4600F059F9064B25
:102150001B68DB6929465B6820469847044601F006
:102160001DF8204638BD00BF2C01002010B500F03E
:1021700047F901F0D5FD01F0E5FE044601F00EF847
:10218000204610BD10B500F03BF9034B1B681C7CCA
:1021900001F004F8204610BD2C01002010B500F01D
:1021A0002FF9044B1B68DB695C7E00F0F7FF2046CB
:1021B00010BD00BF2C01002070B504460E46154628
:1021C00000F01EF920462A46314601F017FE04466B
:1021D00010B1002333602B6000F0E0FF204670BD9B
:1021E000F0B5184E184D83B004460F4600F008F9BC
:1021F00033685B7C55F82300C36869461B6B9847BE
:10220000BDF900309C420BDBBDF904309C4207DC79
:10221000BDF902309F4203DBBDF906309F4205DD68
:10222000002400F0BBFF204603B0F0BD33685B7CA8
:1022300055F82300C36821463A465B69984704462F
:10224000EFE700BF2C01002034440220044834236F
:1022500035216122017002718370C370704700BF25
:102260001401002010B500F0CBF80F4B1A68938DC5
:1022700003F00C03082B08D00C2B06D0042B0BD03A
:10228000002400F08BFF204610BDD3691C7E64083B
:1022900000F084FF204610BDD3691C7E013C00F095
:1022A0007DFF204610BD00BF2C010020024B53F8DB
:1022B00020301B691868704734440220024B53F8E1
:1022C00020301B69586870473444022038B50546F1
:1022D0000C4600F095F8044B1B685D849C8400F06C
:1022E0005DFF002038BD00BF2C01002010B5044662
:1022F00000F086F8204601F025FE044600F04EFF6F
:10230000204610BD90B583B000AF344A334B1B68F4
:1023100023F001031360324B01221A6000BF304BDF
:102320001B68002BFBD12F4B2F4A1A602D4B1B68CB
:102330002E4A934200D0FEE701F002F82C4B2E22E9
:102340001A7007F087FE2B4806F062FB07F098F939
:10235000786001F07DFD0346002B0CBF01230023B4
:10236000DCB201F095FD0346002B0CBF01230023D6
:10237000DBB22343DBB2002B09D001F06FFD044632
:1023800001F08CFD03461946204601F065FF00214F
:10239000002000F07FFE02F0C5FAFFF751F8164B5F
:1023A0001B68002B12D00DE0134B1B681B68002B21
:1023B00003D0114B1B681B6898470F4B1B685B6869
:1023C0000D4A13600C4B1B68002BEDD10B4B012207
:1023D0001A707B6818460C37BD4690BD002000E09F
:1023E0000830024000300240C2A507F4CDB5E8B580
:1023F00028440220A0410220184202202E4402203C
:102400002DE9F041234D6B6823B107F021FEAB6845
:10241000984204D007F034FE07F01AFEA8606B68FB
:102420000133012B6B6001D0BDE8F0811A4F3B688E
:10243000002B29DD0024264606E042B33B68013626
:102440009E4204F17C041FDA07F002FE2B681A5941
:1024500090422344F1D17B68B342E5D0002B10DBDE
:102460002A68C3EB431302EB8308FFF7BDFB2B681D
:10247000C8F878001C44094BA06F04341C60FFF7B7
:102480003BFB7E60BDE8F08100242646E3E7186050
:10249000E1E700BF1C430220380100202C0100208E
:1024A00000B9704710B582B00446FFF7A9FF104B82
:1024B0001B681B6E9C4217D02046FFF7E7F9436963
:1024C000019063B90068FFF715FB01A8FFF7F0F969
:1024D0002046FFF799F800F061FE02B010BD1846E3
:1024E00000F042FE0198EDE700F06AFDE4E700BF6E
:1024F0002C01002030B5044683B098B1FFF780FF6F
:102500002046FFF7C3F9036802AD1B6945F8040DC7
:102510009B68984702F032F804462846FFF7C8F94E
:1025200000F03CFE204603B030BD00BFA0B110B5A6
:10253000044682B0FFF764FF2046FFF7A7F902AB1D
:1025400000F1180443F8040D1846FFF7B1F900F044
:1025500025FE204602B010BD704700BF2DE9F04FA8
:10256000A1B00D9110B921B0BDE8F08F9246074699
:10257000FFF78CF920AB446943F81C0D1846FFF7B0
:1025800097F93846FFF7B6FF0828054602DD002C0C
:1025900000F0D98001234FF0000B38461F930A93B7
:1025A000CDF878B0FFF772F90168DFF8688409693F
:1025B0000446D8F80000E3684D68B4F908100F939A
:1025C00020AE23691491407CB4F90A10099346F8AF
:1025D000144DD4F814901691FFF78CFDD8F8001024
:1025E0000890487CFFF76AFE04463046FFF760F922
:1025F000099A0A9B082A40F2A080102A13468CBF31
:1026000004230223CDF828B00E93A54200F0AC813C
:10261000D8F80030587CFFF749FE149B0646980016
:10262000FEF79AFF129000289DD03846FFF77EFFF4
:102630000746B9F1000F00F0F5804846FFF726F98C
:10264000169B1C90002B40F38B8100230C930F9B57
:10265000CDF840A0FB1815931DAB11934FF0010866
:102660001946836800221D925B690C9A9847159B56
:102670000F9A9B1A0B93149B8342044600F03181FE
:10268000099B012B00F0F280002845D01AAB139370
:102690001298FFF7FBF8099B1A90082B07461D9A22
:1026A00040F2D4800E9B0B99A34602FB031A81468D
:1026B0003AF8020BA847B047BBF1010B49F8040BED
:1026C000F6D1089B1F2B04D838461A46214600F045
:1026D0006FFD0A9A059200220392089A1D980292B1
:1026E0000D9A1A9B10990493104401232246CDF8A9
:1026F0000480CDF8008001F0BBF81398FFF7D8F8FC
:102700001C981D9B8268119957690C9A1C441D9452
:10271000B84704460028BBD1159A0F990C9B0A4470
:102720001592109A01321092169A01339A420C9324
:1027300000F016811C98119993E7012A6ED11EAB07
:102740000E920A9361E73846FFF7A0F820ABB0F984
:10275000088043F8100D02460168B0F90A0008909D
:1027600018460E69D2F80CB009920E93FFF7A0F844
:10277000A848A94900687368407C0C9351F8201060
:102780000C6923680A93FFF7B5FC0828099A40D919
:1027900010288CBF2023102309938CBF4FF004090D
:1027A0004FF00209A64200F02D82202D00F09E81FC
:1027B000102D7FF4D8AE08FB09F0FEF7CDFE109087
:1027C00000283FF4D0AEFFF761F81E903846FFF7BF
:1027D0005DF81C90236900F118020B92002B00F0A9
:1027E00022827369002B00F01E82B0F9080080007D
:1027F000FEF7B2FE0F90002840F069821D900E98FF
:10280000FFF756F81EA8FFF753F81098FEF7FCFEE6
:10281000A9E6082309934FF00109C3E70E93CDF809
:1028200028B0F2E60A9B05930F9B03930124099BB2
:1028300004900293149A169B0D98019451460094AB
:1028400001F016F81298FEF7DFFE8CE60E9B0B994E
:10285000A14602FB031B82461BF8010BA847B047A9
:10286000B9F101094AF8040BF6D12AE700283FF430
:1028700053AF17960C9F0A9EDDF84090DDF834A008
:10288000DDF844B01395DDF874E00B9D05960EF06D
:10289000070006900AEB0E00BEF1000FB8BF0EF164
:1028A000070E05EBEE0E0F9DCDF810E0224601233A
:1028B00049460395CDF80880CDF80480CDF8008016
:1028C00001F04EFD1C981D9B82681C4459465369BB
:1028D0001D943A46984704460028D4D1139D179E6C
:1028E0001AE71298FEF7D2FF099B1A90082B81462F
:1028F000149FDDF82CA0044629D93AF8020BA8470A
:10290000B047013F44F8040BF7D1089B1F2B04D8B4
:1029100048461A46149900F04BFC0A9A059220ABDF
:102920001A460D9852F8183D04931446002203925B
:10293000089A0292CDF80480CDF800800123149A01
:10294000109900F095FF2046FEF7B2FFE4E61AF872
:10295000010BA847B047013F44F8040BF7D1D4E777
:102960001CA8FEF7A5FF6DE73846FFF7DFFD074619
:10297000B9F1000F00F0A9804846FEF787FF169BCB
:102980001C90002B40F39D8000261DABCDF82CA0A1
:10299000DDF834A0B146012598468368CDF87490DF
:1029A0005B69324641469847149B834204462DD0CA
:1029B000099B012B55D008B30B9B03EB060B0A9B1D
:1029C0001D9805930E9B0F9A039203FB0073099ABF
:1029D00002920493224650440123594601950095E2
:1029E00000F046FF1C981D9B82681C4441465369B9
:1029F0001D943246984704460028E0D10F9B0136CB
:102A00001F44169BB3425CDD1C98C6E70897B3468B
:102A10001F4604E02C01002034440220A3461C98E9
:102A200083680BF101045B6922464146984787425F
:102A3000F4D0099902910B990A9A089F0592C6EB66
:102A40000B030F9A049731440F9E039201330195B3
:102A50000095149A504606FB0377264600F008FFBF
:102A6000CFE70028CAD00B9B089603EB060BDDF8D6
:102A700074E00A9805900EF0070006900AEB0E002D
:102A8000BEF1000FB8BF0EF1070E07EBEE0E0F9E62
:102A9000CDF810E022460123594603960295019590
:102AA000009501F05DFC1C981D9B82681C4441460A
:102AB00053691D94089A984704460028D7D1089E68
:102AC0009CE71CA8FEF7F4FE4DE50A9B05930F9BBF
:102AD00003930124099B04900293149A169B0D986A
:102AE00001945146009400F0C3FE3CE509FB08F058
:102AF000FEF732FD0B9000283FF435ADFEF7C6FE21
:102B00001E903846FEF7C2FE1C90256900F118079A
:102B100045B34FEA880B012619E0B9F1040F19D02B
:102B2000B9F1010F16D000221E99099802900123D5
:102B300005920392049101965146009642460D98E3
:102B40009A4400F095FE089B013B089350D0B9F1E0
:102B5000020FE2D138461E9925694B464246A847E6
:102B60005F44E0E70C950126089C14E0B9F1040FDE
:102B700000F08D81994500F035810C9D05950395F8
:102B8000099D02951E9D01960096049500F070FE29
:102B9000013C2DD0DA460123B9F1020F51464246DD
:102BA0000D980AEB030BE1D108944FEA8805012444
:102BB000DDF87890BB4646465BF8040B0A9B9847C5
:102BC000013E29F8020BF7D11E9B099A0292049349
:102BD00051460123059603960194009442460D98B0
:102BE0009A4400F045FE089B013B2F440893DFD137
:102BF0000E98FEF75DFE1EA8FEF75AFE0B98FEF734
:102C000003FDB0E40124183200260492CDF80CB084
:102C10000295089B0D9805964246514601940094F2
:102C200000F026FE9FE400250126089C16E0B9F17D
:102C3000040F00F0FC80994500F0A4801E9F0897C7
:102C4000099F0297089F05950395019600960497A2
:102C500000F00EFE013C3FF4D2ADDA460123B9F19B
:102C6000020F514642460D980AEB030BDFD14FEAA3
:102C700048060C9D08940A9F0A9601241E9EDDF8C2
:102C80002CB0C1463BF8020BA847B847B9F101097F
:102C900026F8020BF6D10B9E1E9A099B0293B646AC
:102CA0000A9E049201235146B644CDF81490CDF803
:102CB0000C900194009442460D98CDF82CE09A4473
:102CC00000F0D6FD089B013B0893D7D197E5FEF7AE
:102CD000DDFD1D9000283FF492AD4FEA48033746D2
:102CE0000A9301250C940B9E19E0B9F1040F30D022
:102CF000B9F1010F28D000221E99099802900123F2
:102D000005920392049101955146009542460D9813
:102D10009A4400F0ADFD089B013B08932BD0B9F11C
:102D2000020FE2D1DDF878B01D994B46424630469D
:102D30007C69A0470A9C1D9826440C9C59464B462A
:102D400042462469A047D6E7DDF878B01D990223F2
:102D5000ECE730461D997C69DDF878B002234246E5
:102D6000A0470C9C1D9824694B4659464246A047F3
:102D70000A9B1E44BFE71DA8FEF79AFD0F98FEF7B9
:102D800043FC3CE508FA03F60C9D08940A9F0A965A
:102D90004C461E9EDDF82CB0C1463BF8020BA847FE
:102DA000B847B9F1010906F8010BF6D10B9E1E9A3E
:102DB000099B0293B6460A9E049201235146B644EB
:102DC000CDF81490CDF80C900194009442460D98E3
:102DD000CDF82CE09A4400F04BFD089B013B089392
:102DE000D7D10CE508944FEA88054C46DDF8789079
:102DF000BB4646465BF8040B0A9B9847013E09F820
:102E0000010BF7D11E9B099A0292049351460123AC
:102E1000059603960194009442460D989A4400F05A
:102E200027FD089B013B2F440893DFD1E0E64FEAE2
:102E300048060C9D08940A9F0A9601241E9EDDF800
:102E40002CB0C1463BF8020BA847B847B9F10109BD
:102E500046F8040BF6D10B9E1E9A099B0293B646C8
:102E60000A9E049201235146B644CDF81490CDF841
:102E70000C900194009442460D98CDF82CE09A44B1
:102E800000F0F6FC089B013B0893D7D1B7E4089407
:102E90004FEA88050124DDF87890BB4646465BF88A
:102EA000040B0A9B9847013E49F8040BF7D11E9B7F
:102EB000099A0292049351460123059603960194C0
:102EC000009442460D989A4400F0D2FC089B013BC6
:102ED0002F440893DFD18BE6094B1A6A002A18BFEA
:102EE000002003EB800210B49469002C04DB43F84B
:102EF00020104FF0FF3393615DF8044B704700BF23
:102F00003C42022020B321B322B3B2F900C0B1F990
:102F10000630F0B5B1F90050B2F902E0B1F9024063
:102F2000B2F90470B2F90660B1F904206545A8BF92
:102F30006546A6457146A8BF2146BA42B8BF3A4683
:102F4000B342B8BF3346058041808280C380F0BD64
:102F5000704711460B684A6842600360704700BFC3
:102F600078B170B4068844888588C38889B292B2E3
:102F70000E44144429440680448070BC1A44818065
:102F8000C2807047B0F90220B1F906309A4214DCD1
:102F9000B1F90220B0F906309A420EDCB0F90020F7
:102FA000B1F904309A4208DCB0F90400B1F90030FC
:102FB0008342CCBF0020012070470020704700BF33
:102FC00008B5FFF71DFA01F0BFF801F0B7F901F0FD
:102FD00007FBBDE8084000F0E1B800BF70B50D4D3B
:102FE0002B6804465E7CFFF70BFA012C03D900F036
:102FF000D5F8304670BD2046FEF7F8FD0028F6D023
:103000002B685C74FFF7DCFF034B1C6000F0C6F814
:10301000304670BD2C0100207048022010B50446D7
:10302000FFF7EEF9204601F0B1F8BDE8104000F0DE
:10303000B5B800BF10B50446FFF7E2F9204601F02D
:10304000DFF8BDE8104000F0A9B800BF38B504466D
:10305000FFF7D6F9044B1B68DD6904B1DC6100F0B1
:103060009DF8284638BD00BF2C01002010B448B19F
:1030700049B103460020054C054A216013605DF804
:10308000044B704701460B460120F4E73C44022004
:103090004044022038B505460C46FFF7B1F9094A0D
:1030A000094B12680949507C094A53F820000D80E9
:1030B000C3681480294622461C6AA047BDE83840F0
:1030C00000F06CB82C010020344402202A44022075
:1030D0002C440220024B1B6803B11847704700BF05
:1030E00030430220024B1A6802B91860FFF7F2BFA2
:1030F000BC420220F8B5084E0468336805461B68D8
:1031000020469847336807465B6820469847204426
:1031100028603846F8BD00BF48440220F8B569B1C0
:10312000074F05460C4600263B6828465B689847D3
:10313000013C05440644F7D13046F8BD0E46FBE796
:10314000484402202DE9F843089C054689469846E4
:10315000AB6849465F6828464346561CB847013C61
:103160003246F5D1BDE8F88330B5054683B0FFF7A8
:1031700047F92846FEF78AFB02AB848943F8040D21
:10318000013C24B284811846FEF792FB14B928460C
:10319000FEF73AFA00F002F803B030BD034A536874
:1031A000013B536003B1704706F072BF1C4302201D
:1031B000082A10B40EDD102A1CDC00EB4101034686
:1031C00050F8042B23F8022B9942F9D101205DF825
:1031D000044B7047022A11D0042A00F09080012A83
:1031E0003CD00144034650F8042B03F8012B9942CC
:1031F000F9D1EBE700205DF8044B704700F11002B5
:1032000052F8103C01294FEA8313DBB223D052F865
:103210000C4C240104F03004022943EA04031AD0C0
:1032200052F8084CA40004F00C04032943EA0403F8
:1032300011D052F8044C04F003042343043900F87D
:10324000013B02F11002C1D052F8103C01294FEAB3
:103250008313DBB2DBD103700120B8E700F1200259
:1032600052F8203C01294FEAC313DBB2F3D052F8E5
:103270001C4CA40104F04004022943EA0403EAD0F0
:1032800052F8184C640104F02004032943EA0403B3
:10329000E1D052F8144C240104F01004042943EA4C
:1032A0000403D8D052F8104CE40004F008040529B7
:1032B00043EA0403CFD052F80C4CA40004F00404F9
:1032C000062943EA0403C6D052F8084C640004F00F
:1032D0000204073943EA040302F12002BBD052F88A
:1032E000244C04F00104234300F8013B52F8203C35
:1032F00001294FEAC313DBB2B9D10370ACE700F187
:10330000080454F8083C01294FEA0313DBB212D039
:1033100054F8042C02F00F021343023900F8013B69
:1033200004F108043FF452AF54F8083C01294FEA75
:103330000313DBB2ECD103705DF8044B0846704711
:1033400030B51B4DEB6F85B00BB105B030BD194BDF
:103350000FCB6C4607C404A924F8023B1B0C237056
:1033600011F8102D0123EB6705F1800404F8012BFF
:1033700011F8012F002AF9D1FEF768FF234610F853
:10338000012B194603F8012B0278002AF7D14A7065
:1033900006F056FEFEF7A4F80BF022FD064B074898
:1033A000C5F8943005B0BDE8304000F093B900BFD7
:1033B000A041022030310108998B000834420220DC
:1033C000F0B52A4B1B6883B004460D467BB1002044
:1033D00001F096FF48B16E4632462946204603F07A
:1033E0006BF901F04BFE0028F6D103B0F0BD106878
:1033F00051681F4F6B4603C33B68BDF80000B3F82C
:103400004CE0B3F85060BDF80410BDF80220BDF8E0
:1034100006307044324433447144ADF800006846CD
:103420006E46ADF80410ADF80220ADF8063001F09C
:1034300067FF50B93B68598C9A8CDC6C186D091B7E
:10344000121A59849A8403B0F0BD3B68BDF800108D
:10345000BDF8022059849A8429463246204603F05A
:103460002BF901F00BFE0028EFD1E3E744440220E2
:103470002C01002070B584B004AB1D4A43F8101D28
:103480000190194613689847019058B3194B1B686F
:10349000DB695B692BB11B681BB10099984704B0CD
:1034A00070BD009B013B002B0093A8BF00241BDBD9
:1034B00001A8FFF71FFE0546FEF732FE009B013B09
:1034C000002B04440093F3DA04A9002641F8046DAC
:1034D0002846FEF737FE039B9842B8BF1E1A3019E4
:1034E00004B070BD04B070BD00252C46ECE700BFF1
:1034F000340100202C01002030B583B0019000B3CE
:10350000114B1B68DB695B690D4623B15B6813B126
:10351000984703B030BD002DD8BF0020F9DD00244E
:1035200004E00A2807D00134A54207D001A8FFF71C
:10353000E1FD0028F5D1204603B030BD284603B098
:1035400030BD03B030BD00BF2C010020B1F9003008
:10355000B0F900209A42B8BF0380B0F90220B1F957
:1035600002309A42B8BF4380B0F90420B1F9043068
:103570009A42C8BF8380B0F90620B1F906309A425A
:10358000C8BFC380704700BFF0B5B2F900C0B1F941
:103590000050B1F90240B2F90230B2F904E0B2F9D8
:1035A0000670B1F90420B1F90660AC456146B8BFB8
:1035B0002946A342B8BF23467245A8BF7246B74208
:1035C0003C46A8BF34469142018043808280C4803B
:1035D00004DCA342CCBF00200120F0BD0020F0BDE0
:1035E0002DE9F041394B1B685D7C012D82B003DD74
:1035F000012002B0BDE8F081354E7368044613B176
:10360000014628469847012C27D0022C0FD0002CC9
:10361000EED1AC003719DFF8B880BB68012B3AD087
:1036200001202644002B18BF013BB360E1E7284688
:10363000FEF7DCFA01900028DAD0C3680D215B6A3E
:1036400001A8984704460028D2D0336803B19847B0
:1036500002210198A0470020CBE706EB8506B7685A
:103660001FB1781CB0602046C3E72846FEF7BEFABB
:1036700001900028BCD0C3680D215B6A01A898475F
:1036800003460028B4D0214601989847B368013317
:103690003846B360ADE72846FEF7A8FA019088B136
:1036A000C3680D215B6A01A89847054650B1D8F858
:1036B000003003B1984700210198A8473319002032
:1036C0009B68AEE7BB680120ABE700BF2C01002080
:1036D0003843022080B483B000AF7860064B1A688C
:1036E0007B685A60044A7B68136000BF0C37BD4694
:1036F0005DF8047B704700BF14420220F8B506460F
:103700004AB18407C9B208D001E0830705D0013A65
:1037100000F8011BF9D13046F8BD97083B4657B376
:1037200001EB0124032F02F0030204EB044416D939
:1037300000F110033D46043D032D43F8104C43F8BF
:103740000C4C43F8084C43F8044C03F11003F2DC32
:10375000043FBB085D1C00EB0510A7EB830343B1DE
:10376000012B046003D0022B446018BF846000EB7F
:103770008300002ACFD0FCF7F2FD3046F8BD00BF31
:1037800070B4840702D50180013A023056080DD08A
:10379000032E334601EB01440DD8012B046003D006
:1037A000022B446018BF846000EB8300D30748BF3E
:1037B000018070BC704700F110033546043D032DB5
:1037C00043F8104C43F80C4C43F8084C43F8044CB5
:1037D00003F11003F2DC043EB3085D1CB6EB830377
:1037E00000EB0510D9D1E1E7044A054B1268527C81
:1037F00053F822301B691B68184700BF2C010020BA
:1038000034440220C0F30722C0F307439A4200B5B4
:10381000C0B21FD0144900EB80007F3003EB83035C
:1038200002EB8202A1FB00E07F337F32A1FB03E3C6
:10383000C009A1FB021200EBC000D209DB0903EBB7
:10384000800302EB420003EB40006B2888BF283066
:103850005DF804FB9042DDD1044B0830A3FB00303F
:10386000000978305DF804FB81808080F1F0F0F091
:103870002DE9F04FB64C91B0D4F800E01B9D1D9E91
:103880001E9F1F9CDDF868A00D95DDF870C00E9698
:10389000079708940F9005920C93BEF1000F06D085
:1038A000DEF80040A44611B0BDE8F04F60474AEA98
:1038B0000503012B894600F09280CCF108030293A6
:1038C0000C9B002B40F38880A24BCDF828E01868B1
:1038D0000491F046E1460D9A049953181A460B9349
:1038E000B0F90A30013A9342099268DCB0F90E301F
:1038F0008B4264DB059B002B61DD0F9B079F0697C6
:103900000026354603EB0A044CE0029BC9EB060691
:1039100048FA03F313F0FF0308FA09F85FFA88F88E
:1039200002D1027C920738D4D0F83CE0DEF80020C7
:103930000392089A0AB152F82330B0F908B0B0F9EE
:103940000CC0CEF80030621E5945B8BF59466245DA
:103950001346A8BF63468B421CDBB0F90A20049FC4
:10396000B0F90EC0BA42B8BF3A46099FBC45A8BFDD
:10397000BC4662450EDC407C774F57F82000D0F8FB
:103980000CE0CDF800C0DEF810B0D847714B1868D5
:10399000D0F83CE0039BCEF80030059B0135AB42EC
:1039A00054440CD0CAEB0401002EAED1069A029EFC
:1039B00092F800801346013306933346A8E7079A2E
:1039C0000E990A9B0A4407920B9A04920C9A0133AF
:1039D0009A420A937FF47FAF11B0BDE8F08F5D4B40
:1039E0001968B1F90A20C9EB0203002B40F3C28029
:1039F0000C98C41A002CEFDD06FB037307930C9B95
:103A0000B1F90E004B44013B1B1A002B02DDE41AF6
:103A1000002CE1DD0F98059D4319B1F90C00013B25
:103A20001B1A002B01DDEB1A0593B1F908000F9D5D
:103A3000854216DB0023059E002ECDDD487C4649DD
:103A400051F820000899C5681E93079B1D930E9B93
:103A50001F911C93CDF86CC01A9433460F996C6873
:103A600020E7059E431BF61A0CF1FF3505961F2D26
:103A7000E1D801A656F825F05D3B0008393B000867
:103A8000373A0008213B0008373A0008373A000867
:103A9000373A0008153B0008373A0008373A000863
:103AA000373A0008373A0008373A0008373A000832
:103AB000373A0008073B0008373A0008373A000851
:103AC000373A0008373A0008373A0008373A000812
:103AD000373A0008F93A0008373A0008373A000840
:103AE000373A0008373A0008373A0008373A0008F2
:103AF000373A0008F93A0008079D0F9005EB830359
:103B00000793002397E7079D0F9005EB4303079367
:103B1000002390E7079D0F901D44079500238AE737
:103B2000079D05EB630507950F9D23F001000544F4
:103B30000F9503F001037EE7079D05EBA3050795AD
:103B40000F9D23F0030005440F9503F0030372E774
:103B5000444402202C01002034440220079D05EB40
:103B6000E30507950F9D23F0070005440F9503F02B
:103B7000070360E70C9C4A46234641E7124B30B4EA
:103B80001C68B4F90A308B420FDCB4F90E3099424C
:103B90000BDCB4F90850B4F90C30A842B8BF284681
:103BA0009A42A8BF1A46904201DD30BC7047074BCD
:103BB000647C53F82440E568AD681346AC460A4679
:103BC0000146204630BC60472C01002034440220CE
:103BD000184B1B68B3F90A208A421DDCB3F90E208A
:103BE000914219DCB3F90820824215DCB3F90C20AC
:103BF000904211DC30B41A7CD2070ED40E4A5C7CA1
:103C0000DB6B52F824401B68E568AD690A46AC4698
:103C10000146204630BC604770475A7C064B53F83B
:103C20002230DC68E4690A4601461846234630BC67
:103C3000184700BF2C01002034440220124B30B43E
:103C40001C68B4F9083083420FDCB4F90C30984298
:103C50000BDCB4F90A50B4F90E30A942B8BF2946BA
:103C60009A42A8BF1A46914201DD30BC7047074B0B
:103C7000647C53F82440E568ED681346AC460A4678
:103C80000146204630BC60472C010020344402200D
:103C900070B5154C2468B4F90860B4F90C50B04202
:103CA000B8BF3046AA42A8BF2A46824282B00BDB88
:103CB000B4F90A60B4F90E50B142B8BF3146AB4214
:103CC000A8BF2B46994201DD02B070BD657C074C50
:103CD00054F82540E568009313460A4601462046FD
:103CE0002C69A04702B070BD2C0100203444022092
:103CF000012801DD0020704710B5FDF777FF28B1DE
:103D0000C36808219B6ABDE810401847002010BD19
:103D1000024B1B689B6B1868704700BF2C0100208A
:103D2000024B1B68DB6B1868704700BF2C0100203A
:103D3000012801DD0020704710B5FDF757FF28B1BD
:103D4000C3680C219B6ABDE810401847002010BDD5
:103D5000012801DD0020704710B5FDF747FF28B1AD
:103D6000C3680D219B6ABDE810401847002010BDB4
:103D7000094B1B68587C012801DD0020704710B5F5
:103D8000FDF734FF28B1C36809219B6ABDE81040E4
:103D90001847002010BD00BF2C010020012801DDC4
:103DA0000020704710B5FDF721FF28B1C368092135
:103DB0009B6ABDE810401847002010BD10B50020D8
:103DC000FDF714FF041C4FF0010018BF0124FDF79C
:103DD0000DFF00B10134204610BD00BF10B5064BE9
:103DE0001B68587CFDF702FF28B1C3680221DB6A1B
:103DF000BDE81040184710BD2C01002030B583B03D
:103E00000C461546FDF7F2FE019070B1C36804211F
:103E10005B6A0DEB01009847034630B101982A46D2
:103E200021469847002003B030BD012003B030BDCB
:103E3000012801DD0020704710B5FDF7D7FE28B13D
:103E4000C3680E219B6ABDE810401847002010BDD2
:103E5000014B1868704700BF6842022038B5012541
:103E60002846FDF7C3FE0024012178B1C3689B6A90
:103E700098478442B8BF04460DB9204638BD002596
:103E80002846FDF7B3FE01210028EFD1F1E700BF7E
:103E9000014B5868704700BF6842022038B50125C1
:103EA0002846FDF7A3FE0024022178B1C3689B6A6F
:103EB00098478442B8BF04460DB9204638BD002556
:103EC0002846FDF793FE02210028EFD1F1E700BF5D
:103ED0002DE9F84360B3856865B3DFF86480D8F8EE
:103EE000006006B30768B7F5807F1FDC124B1B68C4
:103EF0009F42A8BF1F46002F81460DDD043D0024D0
:103F000001E0D8F8006055F8040FFFF76DFC46F8A3
:103F100024000134BC42F4D1084B1B680BB1484665
:103F20009847D8F800603046BDE8F8830026FAE7E5
:103F30000646F8E72E46F6E74801002050430220E7
:103F400054440220044A054B1268527C53F8223034
:103F50001B695B68184700BF2C0100203444022015
:103F600030B4C0F3C4230849084CCB5C00F01F05F3
:103F7000C0F34512485DA25C03EB004000EB022059
:103F800040F07F4030BC70476C6501082C6501082B
:103F9000A0F178030F2B10B52AD96B2802D99328EA
:103FA00032D9283819491A4BA1FB00429208A1FBCB
:103FB0000241A3FB00E302EB4204890801EB41014B
:103FC000A0EB4400DB08A2EB410200EB400003EB56
:103FD000430303EB031302EB420200EB001002EB7E
:103FE000021203EB004000EB022040F07F4010BDC6
:103FF00000EB001300EB031000EB003000F1784001
:10400000083040F07F4010BD002010BDABAAAAAA26
:10401000398EE3380304C0F3074203F47F031343EC
:1040200043F07F4300F47F4018437047C243C0F31E
:104030000741030402F07F420A4303F47F03134362
:1040400000F47F4018437047C0F3C423094910B4FB
:10405000CA5C094CC0F3451300F01F00E35C085C28
:104060005DF8044B120402EB0323184440F07F4038
:10407000704700BF6C6501082C65010840F07F4067
:10408000704700BF704700BF38B50B4D2C680CB1AE
:10409000002038BD094B18688000FDF7DFFA286062
:1040A00038B10748074B40F8043FFFF713FB2046A1
:1040B00038BD012038BD00BF544402204801002013
:1040C00050430220998C00082DE9F84FFFF776FE47
:1040D000B0F100092FDD194FDFF868B00025284640
:1040E000FDF784FD20B33B68284693F811805D748A
:1040F000FFF7FEFD082818DC5BF82530104A1B6925
:10410000934212D02846FFF749FE061E0DDD00241B
:104110005FFA84FA5046FFF715FF01340246514614
:10412000284600F0A5F8A642F2D13B6883F811803A
:104130000135A945D3D1BDE8F88F00BF2C0100207F
:104140003C9D01083444022010B50E4C0E4B2268F1
:10415000517C53F8210038B1C36813B11B68042B9C
:104160000BD000680028F7D1002102F10803116686
:104170005361BDE8104000F035B8FDF713FD22682B
:10418000F2E700BF2C01002034440220014B1B68E1
:104190005B68184730010020044B1B681A7C5207EB
:1041A0004CBFDB6B9B6B1860704700BF2C0100207D
:1041B00030B50A4C0A4B2268527C53F82230DA6838
:1041C00083B0054669461846126B904720686A46D8
:1041D00029460830FFF7D8F903B030BD2C01002084
:1041E00034440220044A054B11684A7C53F82200EB
:1041F000C36808311B6B18472C010020344402208F
:10420000014B1B681B68184730010020044B1B68DA
:104210001A7C52074CBF9B6BDB6B1860704700BF6A
:104220002C01002030B583B00C461546FDF7DEFCAE
:10423000019068B1C36816215B6A01A898470346DC
:1042400030B101982A4621469847002003B030BD7E
:10425000012003B030BD00BF014B83E8030070476D
:1042600068420220014B1B689B6818473001002000
:1042700030B583B00C461546FDF7B8FC019068B127
:10428000C36810215B6A01A89847034630B10198C2
:104290002A4621469847002003B030BD012003B0D4
:1042A00030BD00BF30B583B00C461546FDF79EFC0F
:1042B000019068B1C3680B215B6A01A89847034667
:1042C00030B101982A4621469847002003B030BDFE
:1042D000012003B030BD00BF10B582B00C46FDF721
:1042E00085FC019060B1C36809215B6A01A8984709
:1042F000034628B1019821469847002002B010BD1E
:10430000012002B010BD00BF30B583B00C46154689
:10431000FDF76CFC019068B1C3680A215B6A01A8D3
:104320009847034630B101982A4621469847002015
:1043300003B030BD012003B030BD00BF10B5074C45
:104340002368186BFFF750FAFFF760FF2368586B7C
:10435000FFF74AFABDE81040FFF71EBF2C0100200E
:104360002DE9F04F91B0824C1B9D0E952E461D9D60
:104370000C9524681E9D06951F9D0895DDF868A084
:10438000DDF870E0209D0F9005920D932CB124680C
:10439000A44611B0BDE8F04F60474AEA0603012B7E
:1043A000894600F09180CEF1080302930D9B002B0B
:1043B00040F387806F4B0A9418680491A046F14639
:1043C0000E9A049953181A460B93B0F90A30013A21
:1043D0009342099268DCB0F90E308B4264DB059B96
:1043E000002B61DD0F9B069F07970026354603EBE8
:1043F0000A044CE0029BC9EB060648FA03F313F0EB
:10440000FF0308FA09F85FFA88F802D1027C9207E4
:1044100038D4D0F83CE0DEF800200392089A0AB1C4
:1044200052F82330B0F908B0B0F90CC0CEF8003023
:10443000621E5945B8BF594662451346A8BF634638
:104440008B421CDBB0F90A20049FB0F90EC0BA42BF
:10445000B8BF3A46099FBC45A8BFBC4662450EDCC2
:10446000407C454F57F82000D0F80CE0CDF800C054
:10447000DEF810B0D8473F4B1868D0F83CE0039BFB
:10448000CEF80030059B0135AB4254440CD0CAEB4A
:104490000401002EAED1079A029E92F800801346C6
:1044A000013307933346A8E7069A0C990A9B0A44FE
:1044B00006920B9A04920D9A01339A420A937FF462
:1044C0007FAF11B0BDE8F08F2A4B1868B0F90A2011
:1044D000531A002B47DD0D99CC1A002CF1DD069EF6
:1044E0000C9901FB036306930D9BB0F90E104B442E
:1044F000013B5B1A002B02DDE41A002CE1DD0F9971
:10450000059E8B19B0F90C10013B5B1A002B01DDE5
:10451000F31A05930F99B0F90830491B99420DDA47
:104520005B1A069F1D4407EBE5070697059F23F0DE
:104530000706FB1A05F0070505933144059B002B80
:10454000BFDD407C0C4B089F53F82000059BC668DC
:104550001E95069D1D950C9D1F971C95CDF86CE032
:104560001A94746814E70D9C0A462346BDE700BF01
:10457000444402202C01002034440220C8B130F011
:10458000010317D030F0030301D10820704730F049
:104590000703FAD030F00F03F7D030F01F03F4D048
:1045A00030F0FF03F1D020F4FF7323F001031BB9B7
:1045B000102070470120704720F47F6323F00F0321
:1045C000002BF5D020F4FF4323F07F03002BEFD026
:1045D000000C000400280CBF10202020704700BFF2
:1045E000024B1B68012283F8542070472C010020E5
:1045F0002DE9F043044687B0FDF702FF24B9FEF72A
:10460000CDFD07B0BDE8F0832046FDF73FF9034636
:1046100003C804AD85E8030001A801931F6AD3F81D
:104620002880FDF745F9204600F04EFE064600289A
:10463000E5D0FDF7E5FE2046FDF754F9D0F81890D7
:10464000FEF7ACFD18F0020F20D12046FDF71EF951
:1046500001904846FDF71AF903903046FDF716F928
:10466000039A0199D569076203460D6201A8D461D6
:104670000293FDF71DF903A8FDF71AF902A8FDF74B
:1046800017F9FEF78BFD07B0BDE8F08328463A46E0
:10469000494601F029F9D8E72DE9F04F87B01E46C9
:1046A000804689461546109F139CFDF7A9FE6A4B6C
:1046B000D3F800A07FB9694B1B88002B70D104F19F
:1046C0002C00FCF757FF044628BBFEF767FD204689
:1046D00007B0BDE8F08F7B1C6DD03846FDF7D6F8EB
:1046E000B0F90020B0F902300190904499441DB90E
:1046F000B0F90450AD1A01351EB9B0F90660F61ACA
:10470000013601A8FDF7D4F804F12C00FCF732FFC4
:1047100004460028D9D0514A138801331380FDF78D
:10472000B5F811994E4B826A0DF1180B4AEA010A4D
:104730004BF8180D45444E440AEA03031343013D68
:10474000129A8362013E8580C6800261A0F80080D3
:10475000A0F802905846FDF7ABF8424B18680028C5
:104760005BD11C603946204600F096FE1AF0200FFF
:104770002FD11AF0010F20D11AF0400F25D11AF0D5
:10478000020F58D106A90123204641F8103D039499
:1047900001F010F9FEF702FD204607B0BDE8F08FEA
:1047A000314A324B1268527C53F822305A1C012A8B
:1047B00085D91F4691E7002781E72D4A13681AF033
:1047C000400F03F101031360D9D02046FFF710FF1B
:1047D000D5E7254EFDF714FE336825469C6400E0BE
:1047E00005462846FDF77EF880690028F8D11F4B62
:1047F0001A6895421CD05B689D4218D0FFF7F2FC06
:104800002046FDF76FF83368B0F90010B0F90220C8
:104810001A65D964FEF7C2FCABE7FDF763F80546FD
:104820002046FDF75FF86B6943616C619AE70120F0
:10483000FEF7D4FBE2E72046FDF728F8034658468A
:104840009A6A009342F002029A62FDF731F8002161
:10485000204600F015F995E75C4802206A480220DE
:104860009F3F3F00604802202C010020B8480220F2
:104870007448022003680E3B10B5044640681A2BAA
:1048800012D8DFE803F01B11111111110E111120C4
:1048900011111111111111111111221111111111F7
:1048A0001400E16800F0C8FB0023E36010BD00289D
:1048B000FCD00021BDE8104000F0E2B82146BDE880
:1048C000104000F0FDBAE06010BD6FF07043E3608F
:1048D00010BD00BF034A044B1268527C53F82200FB
:1048E000704700BF2C010020B848022010B50446D4
:1048F00038B1FDF785FD2046FCF7F4FFC469FEF7EB
:104900004DFC204610BD00BF10B5044638B1FDF780
:1049100077FD2046FCF7E6FF8469FEF73FFC204662
:1049200010BD00BF2DE9F04F454D2B7885B0002B11
:104930007BD1444FDFF8409138684349434ADFF860
:104940002C81DFF838A1424EAB6043641C46C9F8A5
:1049500000300B8013809B462046FDF747F943F655
:10496000FF7300214FF0020C4FF0FF3E1A4690B14A
:10497000CDF80CB0CDF808A0CDF804C0CDF800E01B
:104980000846FFF789FE6FF0704248F8240046F8A9
:104990002420002850D10134022CDDD12D4800F014
:1049A00043FB2D4800F040FB2C4800F03DFB2C4819
:1049B00000F03AFB2B4800F037FB2B4800F034FBAB
:1049C000D8F80060FDF71CFD3B680EB9D9F800600F
:1049D0009E64344600E004462046FCF783FF80696D
:1049E0000028F8D1D8F80030204A9C4221D05368E2
:1049F0009C421DD0FFF7F6FB3046FCF773FF3B6887
:104A0000B0F90010B0F902201A65D964FEF7C6FBB0
:104A10003A68174B17486B62012382F854302B70A9
:104A200005B0BDE8F04FFEF755BE05B0BDE8F08F0C
:104A30000120FEF7D3FADDE7002100F021F8AAE714
:104A4000704202202C010020684802206A4802209F
:104A5000784802209048022080480220A048022086
:104A60009848022088480220A8480220B84802201E
:104A7000DD8B00089442022060480220D195000896
:104A80002DE9F041074686B00C46FDF7B9FC3846E3
:104A9000FCF7FCFED0F82880009018F0020F2FD011
:104AA00003C804AE18F4803F86E8030045D17CB10A
:104AB00020686168009C02AB03C3B4F90220B4F91A
:104AC000001002A8FEF74CFA02A93046FEF73EFDA0
:104AD0003D4608E0FEF73AFD019B9C6901A8BCB188
:104AE000FCF7E6FE25462846FCF7D0FE0346019378
:104AF0009A6A930701463046ECD401A8FCF7D8FE29
:104B00006846FCF7D5FEFEF749FB06B0BDE8F0812C
:104B1000FCF7CEFE104B1A68AA4202D05B689D4299
:104B2000EED140F6010308EA0303012B0BD0314616
:104B30003846202203F0ACFFE2E7384600F01AFDC9
:104B4000002CB5D1C4E7009B30461A6A996920232E
:104B500000F062FED4E700BFB848022000B97047F9
:104B60002DE9F04FA1B0044601920D46FCF78EFEF0
:104B7000836A05909A0740F15681024629460EA89D
:104B8000FEF702FD002800F04E8105A8FCF790FE1C
:104B90002046019A0EA903F07BFF2046FFF7A6FEF0
:104BA0000446002800F042812046FCF76FFE836A2D
:104BB00006909B0740F13D8102460EA910A8FEF722
:104BC000E3FC002800F0358106A8FCF771FE019A8D
:104BD00010A9204603F05CFF2046FFF787FE05463C
:104BE000002800F0188102942846FCF74FFE836AE3
:104BF00007909F0740F12181024610A912A8FEF7F5
:104C0000C3FC002800F0198107A8FCF751FEDDF86D
:104C100004A02846524612A903F03AFF2846FFF79F
:104C200065FE002800F0EF80039505462846FCF756
:104C30002DFE836A08909E0740F10381024612A967
:104C400014A8FEF7A1FC002800F0FB8008A8FCF7E0
:104C50002FFE2846524614A903F01AFF2846FFF7F4
:104C600045FE002800F0C780AB4680464046FCF772
:104C70000DFE836A09909D0740F1E780024614A962
:104C800016A8FEF781FC002800F0DF8009A8FCF7D9
:104C90000FFE4046524616A903F0FAFE4046FFF7C3
:104CA00025FE002800F09D8081464846FCF7EEFD79
:104CB000836A0A909C0740F1D580024616A918A87D
:104CC000FEF762FC002800F0CD800AA8FCF7F0FD9A
:104CD000524618A9484603F0DBFE4846FFF706FE99
:104CE0000546002874D02846FCF7D0FD836A0B9057
:104CF000990740F1C480024618A91AA8FEF744FC9F
:104D0000002800F0BC800BA8FCF7D2FD52461AA97F
:104D1000284603F0BDFE2846FFF7E8FD06460028BA
:104D200050D03046FCF7B2FD836A0C909A0740F1F0
:104D3000B18002461AA91CA8FEF726FC002800F044
:104D4000A9800CA8FCF7B4FD52461CA9304603F01C
:104D50009FFE3046FFF7CAFD074668B33846FCF7AA
:104D600095FD836A0D909B0740F19F8002461CA928
:104D70001EA8FEF709FC002800F097800DA8FCF79C
:104D800097FD52461EA9384603F082FE3846FFF7CB
:104D9000ADFD044650B1204652461EA9FFF7DEFE87
:104DA0002046FCF79FFD046A002CF4D13846FCF73E
:104DB00099FD076A002FD1D13046FCF793FD066AB2
:104DC000002EAED12846FCF78DFD056A002D8AD154
:104DD0004846FCF787FDD0F82090B9F1000F7FF42A
:104DE00064AF4046FCF77EFDD0F82080B8F1000F9C
:104DF0007FF43CAF5D462846FCF774FD056A002D44
:104E00007FF414AF039D2846FCF76CFD056A002D66
:104E10007FF4EAAE029C2046FCF764FD046A002C95
:104E20007FF4C2AE02E005A8FCF742FD21B0BDE868
:104E3000F08F06A8FCF73CFDEDE707A8FCF738FD6E
:104E4000E1E708A8FCF734FDD5E709A8FCF730FD39
:104E50004046FCF747FDD0F82080B8F1000F7FF402
:104E600005AFC7E70AA8FCF723FD4846FCF73AFD63
:104E7000D0F82090B9F1000F7FF417AFB1E70BA87D
:104E8000FCF716FD2846FCF72DFD056A002D7FF482
:104E90002AAF9DE70CA8FCF70BFD3046FCF722FD7E
:104EA000066A002E7FF43DAF8CE70DA8FCF700FDED
:104EB0003846FCF717FD076A002F7FF44FAF7BE7FA
:104EC000E1B170B505460C46FDF79AFA1DB9BDE88B
:104ED0007040FEF763B9FDF793FA2846FCF702FD30
:104EE0008669FEF75BF9002EF1D0A56021463046B9
:104EF00000F060FDBDE87040FEF750B9704700BF9C
:104F00002DE9F041454F3B6893F8542086B0002AC4
:104F100039D1986CDFF80881FCF7B8FC034603C868
:104F200002AE86E8030068460093FCF7C1FCD8F89F
:104F30000040002C4ED13C68636C002B65D0186893
:104F40005968D8F8002004AD2B4603C3CAB11046F7
:104F5000FCF79CFC06ACB0F9022044F8140DB0F943
:104F600000102846FDF7FCFF2046FCF7A1FC284670
:104F70003146FEF7EBFA2846FFF71AF906B0BDE80E
:104F8000F081A26CE3E75A6C002A42D0244C1068EE
:104F90005168246804AD2A4603C2CCB12046FCF710
:104FA00075FC06ACB0F9022044F8100DB0F9001001
:104FB0002846FDF7D5FF2046FCF77AFC194928461C
:104FC000FEF7C4FA2846FFF7F3F806B0BDE8F08113
:104FD0009C6CE3E704AD07E0FEF7B8FA049B9C691C
:104FE00028467CB1FCF764FC2046FCF74FFC0346E6
:104FF00001469A6A049393073046EDD42846FCF79D
:1050000057FC98E7FCF754FC95E73046FFF7D0F8DB
:10501000B4E70448FFF7CCF8B0E700BF2C0100204C
:10502000C848022084420220024B1A6802601860BD
:10503000704700BFD448022080B179B130B583B049
:105040000C46FCF723FC02AD214645F8040D00F0A8
:1050500007F82846FCF72CFC03B030BD704700BFB2
:1050600030B400230B804B80058844888288C38835
:10507000521B1B1B8A80CB8030BC70472DE9F0434C
:10508000DFF84082D8F8003093F8540087B030B190
:105090008B4E336A012B05DD013B3362002007B0E4
:1050A000BDE8F08306F11407F36997E8030002AD49
:1050B000013385E80300F36153B9F3680293B6F94D
:1050C0000E30B6F912207E4C9A4217DA336AE3E7C3
:1050D000328BB6F91010B6F91630ADF80A3001323D
:1050E00012B29142ADF80820EBDA738BB289ADF8B9
:1050F000082001331BB2ADF80A30E2E7D8F80030DF
:10510000DFF8C091986CFCF7C1FBBDF90830B4F929
:105110000C1000909942024600F0B980D8F80020A7
:10512000ADF80C30906C10B90DE0A06958B1FCF7E7
:10513000D9FB29460446006A02F000FF0028F4D09B
:10514000BDF90830EAE7009B2946D86902F0F6FE6F
:105150000028F5D1B6F91030BDF90820ADF80C30B3
:105160009A4200F38C80D8F80030986C0DF110084A
:1051700068B3FCF7B7FB046A81466CB923E0E1072A
:105180004BD4BDF810300198013BADF80C30046AE7
:1051900001A8FCF78DFBB4B12046FCF777FB846ACD
:1051A0000190A307F3D503C888E8030041462846C9
:1051B000FDF7E8FE0028E2D10198046A01A8FCF797
:1051C00077FB002CE8D1D9F818000028D1D1009B3A
:1051D000DC690DF1100874B940E0E3072ED4BDF886
:1051E00010300198013BADF80C30046A01A8FCF7BF
:1051F0005FFB002C32D02046FCF748FB846A01900C
:10520000A207F2D503C888E8030041462846FDF707
:10521000B9FE0028E1D10198E7E70198C469002CA4
:10522000B5D020464246294602F0CEFE2046FCF785
:1052300059FB046A002CF4D10198BEE70198C469B7
:10524000002CD2D020464246294602F0BDFE204620
:10525000FCF748FB046A002CF4D1DCE76846FCF755
:1052600027FBF26944F620639A423FF72FAF95E897
:10527000030087E80300FFF743FE01200FE795E8EE
:10528000030087E803006846FCF712FB2DE7D9F816
:1052900000102369886C039350B1FCF723FB04468C
:1052A0002946006A02F040FFA0690028F5D1009A63
:1052B000D069294602F038FFBDF908302EE700BF5B
:1052C000704202202C01002038B50546FFF71CFB78
:1052D00010B90024204638BDFCF704FBC469002C3B
:1052E000F7D0A54203D1F4E71C46002BF1D02046AD
:1052F000FCF7F8FA036A9D42F6D1204638BD00BF9C
:105300002DE9F0435E4C226892F8543089B04BB1DD
:105310005C4D2B6A0133012B2B6209DD012009B0A2
:10532000BDE8F083FFF7ECFD012009B0BDE8F08394
:105330000746906CFCF7AAFA534B01901B784FF08C
:10534000FF32EA61002B61D0083003C804AE86E862
:1053500003001FB139463046FEF7F8F823685B6C4E
:10536000002B00F08780494F186859683A6806ABEF
:1053700003C3019802900DF10808002A60D1B0F92A
:105380000220B0F9001006A8FDF7EAFD304606A994
:10539000FEF7DCF84046FCF78BFAD7F800900DF1E9
:1053A0000C08B9F1000F26D123689F6C08E0FEF7C6
:1053B000CDF8039B9C6940468CB3FCF779FA2746ED
:1053C0003846FCF763FA034601469A6A039393074B
:1053D0003046ECD44046FCF76BFA2B6A013B2B625B
:1053E00000209CE7FEF7B2F8039B9F6940467FB31D
:1053F000FCF75EFAB9464846FCF748FA0346014610
:105400009A6A039392073046E4D5EBE7836A13F078
:10541000020627D003C804AE86E8030099E7FCF72C
:1054200047FA1B4B1A68974202D05B689F42D4D15F
:1054300096E80300174B83E80300FFF71FFE6EE7B3
:105440004046FCF735FA3868FCF720FA029096E7F8
:10545000FCF72EFA0E4B1A689145A5D05B6899456A
:10546000A2D0BAE72B6A01A8013B2B62FCF720FA15
:10547000304654E701A8FCF71BFA044F8DE700BF44
:105480002C010020704202206C480220C8480220F3
:10549000B84802207C42022001B9704770B584B040
:1054A0000C460546FCF7F2F90346002284612046CB
:1054B0001A620193FCF7EAF9C4690290002C2CD01F
:1054C000019B20469E6AFCF7E1F906F0080603906E
:1054D000002E2BD1836A1A073DD402A8FCF7E8F905
:1054E00003A8FCF7E5F92046FCF7FCF9046A0390F1
:1054F00024B92EE0046A0390002C2AD02046FCF741
:10550000F1F9836A1B07F5D5039A019B15621C62AA
:1055100001A8FCF7CDF904B070BDC56101A8FCF786
:10552000C7F902A8FCF7C4F904B070BD02A8FCF7E3
:10553000BFF903A8FCF7BCF92046FCF7D3F9026ACF
:10554000039032B11046FCF7CDF9026A0390002AAD
:10555000F8D10562DCE7019A029B146201A8DD61C3
:10556000FCF7A6F902A8FCF7A3F903A8FCF7A0F939
:10557000DAE700BF00B970472DE9F04F8FB004465D
:10558000FCF784F9836A05909A0740F13C81406AF0
:1055900040B1A04B1B689C4204D0FCF781FF059BE7
:1055A00000225A622046FFF7A1F90390002800F07C
:1055B0002A81DFF860820398FCF768F9836A069015
:1055C0009B0740F11581406A48B1D8F80030039A32
:1055D000934204D0FCF764FF069B00225A620398B2
:1055E000FFF784F90290002800F002810298FCF78E
:1055F0004DF9836A07909F0740F1EF80406A48B1F8
:10560000D8F80030029A934204D0FCF749FF079B78
:1056100000225A620298FFF769F98346002800F0D9
:10562000DC805846FCF732F9836A08909E0740F107
:10563000C880406A40B1D8F800305B4504D0FCF720
:105640002FFF089B00225A625846FFF74FF9824607
:10565000002800F0B6805046FCF718F9836A0990DC
:105660009D0740F1A280406A40B1D8F80030534510
:1056700004D0FCF715FF099B00225A625046FFF741
:1056800035F90190002800F090800198FCF7FEF8B1
:10569000836A0A909C077DD5406A48B1D8F80030EB
:1056A000019A934204D0FCF7FBFE0A9B00225A6247
:1056B0000198FFF71BF9064600286BD03046FCF72F
:1056C000E5F8836A0B9099075BD5406A40B1D8F83A
:1056D0000030B34204D0FCF7E3FE0B9B00225A6279
:1056E0003046FFF703F9054600284AD02846FCF764
:1056F000CDF8836A0C909A073AD5406A40B1D8F841
:105700000030AB4204D0FCF7CBFE0C9B00225A6267
:105710002846FFF7EBF84FF00009044640B3204657
:10572000FCF7B4F8836A0D909B0718D5406A40B126
:10573000D8F80030A34204D0FCF7B2FE0D9BC3F8AA
:1057400024902046FFF7D2F8074640B13846FFF7CD
:1057500011FF3846FCF7C6F8076A002FF6D10DA8EE
:10576000FCF7A6F82046FCF7BDF8046A002CD6D159
:105770000CA8FCF79DF82846FCF7B4F8056A002D44
:10578000B4D10BA8FCF794F83046FCF7ABF8066AE6
:10579000002E93D10AA8FCF78BF80198FCF7A2F829
:1057A000036A0193002B7FF470AF09A8FCF780F81F
:1057B0005046FCF797F8D0F820A0BAF1000F7FF41C
:1057C0004AAF08A8FCF774F85846FCF78BF8D0F8F5
:1057D00020B0BBF1000F7FF424AF07A8FCF768F8F6
:1057E0000298FCF77FF8036A0293002B7FF4FEAE69
:1057F00006A8FCF75DF80398FCF774F8036A0393B6
:10580000002B7FF4D8AE05A8FCF752F80FB0BDE826
:10581000F08F00BFCC48022001B970472DE9F0415C
:10582000054686B008460C461E461746FCF72EF87D
:10583000D0F82880009018F0020F42D00246294686
:1058400002A8FDF7A1FE00283BD040F6010308EABC
:105850000303012B3FD02046324602A903F018F97A
:10586000009BDC696CB3BC422BD02046FCF70EF8E1
:10587000836A01909B072AD5024602A904A8FDF776
:1058800083FE20B301A8FCF713F8324604A9204692
:1058900003F0FEF82046FFF729F8054650B12846E8
:1058A000324604A9FFF75AF92846FCF71BF8056AA7
:1058B000002DF4D12046FCF715F8046A0CB1A7427C
:1058C000D3D16846FBF7F4FF06B0BDE8F08101A82C
:1058D000FBF7EEFFEEE7009933460A6A896902A8F2
:1058E000FFF79AFFBCE700BF01B97047F0B5054666
:1058F00087B0084616460C46FBF7C8FF876A00903B
:10590000BA0740D50246294602A8FDF73DFE002809
:1059100039D040F601033B40012B43D020462022E2
:1059200002A903F0B5F8009BDC6964B3A6422AD053
:105930002046FBF7ABFF836A01909B0728D5024600
:1059400002A904A8FDF720FE10B301A8FBF7B0FFE1
:10595000202204A9204603F09BF82046FEF7C6FF4C
:10596000054650B12846202204A9FFF7F7F828463B
:10597000FBF7B8FF056A002DF4D12046FBF7B2FF14
:10598000046A002CD2D16846FBF792FF07B0F0BD45
:1059900001A8FBF78DFF2046FBF7A4FF046A002C4B
:1059A000C4D1F0E7009920230A6A896902A8FFF7A9
:1059B00033FFB8E770B50D4C2268132A00DD70BDC7
:1059C00006460D46FBF78EFF02696E6042B1236802
:1059D00028460133236090472368013B236070BD54
:1059E0002846BDE87040FEF745BF00BF6043022077
:1059F000C04BDA68F0B59C6B013A22440D18AA42FC
:105A000003D30A58002A00F0A1808C4205D251F835
:105A1000042C8A1A1468002C4AD0D3F8B840B54A2E
:105A2000A04280F01E81D2F8B040A04280F01B81DD
:105A3000D2F8A840A04280F01881D2F8A040A0423D
:105A400080F01581D2F89840A04280F01281D2F8FF
:105A50009040A04280F00F81D2F88840A04280F0B0
:105A60000C81D2F88040A04280F00981946FA0425E
:105A700080F00781126F904280F005819C6E9D4AF4
:105A8000A04280F00281146EA04280F00081946DEB
:105A9000A04280F0FE80146DA04280F0FC80946CE7
:105AA000A04280F0FA80126C904280F0A680F0BD97
:105AB0005168D3F8B8508F4CA942084480F0F9805F
:105AC000D4F8B050A94280F00681D4F8A850A94279
:105AD00080F0FF80D4F8A050A94280F0F880D4F87C
